:020000041A00E0
:10000000008000106117001A7B01001A7D01001AA0
:100010007F01001A8101001A8301001A2461FF5335
:100020000000000000000000000000008501001A30
:100030008701001A000000008901001A6118001AE7
:100040007901001A7901001A7901001A00000000F4
:100050007901001A7901001A7901001A7901001A50
:100060007901001A7901001A7901001A7901001A40
:100070007901001A7901001A7901001A7901001A30
:100080007901001A7901001A7901001A7901001A20
:100090007901001A7901001A7901001A7901001A10
:1000A0007901001A7901001A7901001A7901001A00
:1000B0007901001A7901001A7901001A7901001AF0
:1000C0007901001A7901001A7901001A7901001AE0
:1000D0007901001A7901001A7901001A7901001AD0
:1000E0007901001A7901001A7901001A7901001AC0
:1000F000000000007901001A7901001A7901001A44
:10010000000000007901001A7901001A7901001A33
:100110007901001A201F001A0000001038000000AA
:10012000201F001A0000081000000000201F001A05
:100130000000002000000000201F001A00800020A6
:1001400000000000201F001A00C000200000000076
:1001500038000010840000000000081000000000BB
:1001600000000020000000000080002000000000CF
:1001700000C0002000000000FEE7FEE7FEE7FEE70B
:10018000FEE7FEE7FEE7FEE7FEE7FEE70023934219
:100190000AD210B450F8044B41F8044B0433934294
:1001A000F8D35DF8044B7047704700238B4204D2AC
:1001B000002240F8042B0433F8E77047FFFFFFFFED
:1001C000FFFFFFFFFFFFFFFFFFFFFFFFFFFFFFFF3F
:1001D000FFFFFFFFFFFFFFFFFFFFFFFFFFFFFFFF2F
:1001E000FFFFFFFFFFFFFFFFFFFFFFFFFFFFFFFF1F
:1001F000FFFFFFFFFFFFFFFFFFFFFFFFFFFFFFFF0F
:10020000FFFFFFFFFFFFFFFFFFFFFFFFFFFFFFFFFE
:10021000FFFFFFFFFFFFFFFFFFFFFFFFFFFFFFFFEE
:10022000FFFFFFFFFFFFFFFFFFFFFFFFFFFFFFFFDE
:10023000FFFFFFFFFFFFFFFFFFFFFFFFFFFFFFFFCE
:10024000FFFFFFFFFFFFFFFFFFFFFFFFFFFFFFFFBE
:10025000FFFFFFFFFFFFFFFFFFFFFFFFFFFFFFFFAE
:10026000FFFFFFFFFFFFFFFFFFFFFFFFFFFFFFFF9E
:10027000FFFFFFFFFFFFFFFFFFFFFFFFFFFFFFFF8E
:10028000FFFFFFFFFFFFFFFFFFFFFFFFFFFFFFFF7E
:10029000FFFFFFFFFFFFFFFFFFFFFFFFFFFFFFFF6E
:1002A000FFFFFFFFFFFFFFFFFFFFFFFFFFFFFFFF5E
:1002B000FFFFFFFFFFFFFFFFFFFFFFFFFFFFFFFF4E
:1002C000FFFFFFFFFFFFFFFFFFFFFFFFFFFFFFFF3E
:1002D000FFFFFFFFFFFFFFFFFFFFFFFFFFFFFFFF2E
:1002E000FFFFFFFFFFFFFFFFFFFFFFFFFFFFFFFF1E
:1002F000FFFFFFFFFFFFFFFFFFFFFFFFFFFFFFFF0E
:10030000002303724372037443748374C3740375CC
:10031000037743778377C37780F8203070470123D2
:100320000375C36883617047022303700023436031
:10033000704710B50446FFF7F2FF03232370002334
:10034000636010BD042303700023436070470523DE
:10035000437001234360704700230370436070477C
:1003600000230370436070470023037043607047AD
:1003700000234370012343607047002383700223EE
:10038000436070470023837002234360704700235B
:10039000837002234360704700238370022343600D
:1003A00070470023C37003234360704708B5FFF70D
:1003B000BBFF08BD08B5FFF7F9FF08BD08B5FFF79B
:1003C000C6FF08BD08B5FFF7F9FF08BD002070475C
:1003D00038B50D4631B10446FFF7F8FF10B9237A5E
:1003E00013B91D46284638BD2046FFF7B9FF204601
:1003F000FFF79AFFF6E738B50D4641B10446FFF71F
:10040000E5FF20B9637A23B9237A4BB91D46284604
:1004100038BD2046FFF7A8FF2046FFF78AFFF6E722
:100420002046FFF7A1FF2046FFF77EFFEFE738B534
:100430000D46B9B30446037D13B18269082A0DD075
:1004400013B1A269042A11D013B1A269022A16D0ED
:100450003BB3A369012B1BD0002523E0FFF788FFE6
:100460000123E3742046FFF772FF1BE02046FFF7ED
:100470007FFF0123A3742046FFF769FF12E02046A7
:10048000FFF776FF012363742046FFF760FF09E062
:100490002046FFF76DFF012323742046FFF757FF27
:1004A00000E01D46284638BD10B50446012101F084
:1004B000A2F90121204601F099F90123637510BDCD
:1004C00010B50446FFF7F0FF0823A3700223636012
:1004D00010BD08B5FFF7F4FF08BD08B5FFF7F9FF39
:1004E00008BD38B50D4619B10446437C13B91D4605
:1004F000284638BDFFF746FF2046FFF7E1FFF7E744
:1005000010B50446002101F076F90121204601F0E2
:100510006DF910BD10B50446FFF7F2FF0923A37073
:100520000223636010BD08B5002101F05FF908BD2A
:1005300010B50446FFF7F7FF0623A370022363609C
:1005400010BD38B50D4629B10446437C23B9037C60
:1005500043B91D46284638BDFFF70FFF2046FFF779
:10056000D9FFF7E7FFF709FF2046FFF7E1FFF1E7C3
:1005700010B50446002101F039F90023637510BD60
:1005800010B50446FFF7F4FF0723A370022363604E
:1005900010BD08B5002101F033F908BD10B50446BF
:1005A000FFF7F7FF0F23E3700323636010BD08B567
:1005B000FFF7F4FF08BD08B5FFF7F9FF08BD08B560
:1005C00000F11C0101F042F908BD08B500220270DB
:1005D0004260FFF7F4FF08BD38B50D4631B104465F
:1005E000FFF7F4FE10B9237F13B91D46284638BD26
:1005F0002046FFF7EAFF2046FFF7A4FEF6E708B51E
:1006000000F11D0101F022F908BD08B50022827039
:1006100002224260FFF7F3FF08BD38B50D4619B15D
:100620000446437F13B91D46284638BDFFF7EDFF4A
:100630002046FFF745FFF7E708B500F11E0101F07E
:1006400005F908BD08B50022827002224260FFF75A
:10065000F3FF08BD38B50D4619B10446837F13B9C1
:100660001D46284638BDFFF7EDFF2046FFF752FF35
:10067000F7E708B500F1200101F0E8F808BD08B57A
:100680000022C27003224260FFF7F3FF08BD08B5E5
:1006900000F11F0101F0DAF808BD08B50022C270B0
:1006A00003224260FFF7F3FF08BD08B5C3780D2BA6
:1006B00002D00E2B03D008BDFFF7EFFFFBE7FFF7DB
:1006C000DEFFF8E708B5FFF7F0FF08BD38B50D46C7
:1006D00019B10446437D13B10025284638BDFFF704
:1006E000F1FF2046FFF75AFFF7E708B50023642221
:1006F00000F11C0101F09CF808BD10B50446FFF79D
:10070000F4FF012323700023636010BD38B50D464C
:1007100031B10446FFF75AFE10B9637A13B91D468A
:10072000284638BD2046FFF717FE2046FFF7E5FFB5
:10073000F6E710B504460023C82200F11E0101F0BF
:1007400077F80021204601F051F810BD10B504469D
:10075000FFF7EFFF0B23A3700223636010BD38B5D2
:100760000D4629B10446C37C23B9437C43B91D46D9
:10077000284638BDFFF70BFE2046FFF7D9FEF7E706
:10078000FFF705FE2046FFF7E1FFF1E710B504464D
:100790000023C82200F11D0101F04AF80021204683
:1007A00001F024F810BD10B50446FFF7EFFF0A234F
:1007B000A3700223636010BD38B50D4669B10446CD
:1007C000837C2BB9037C53B9437C73B91D4604E089
:1007D000FFF7E2FD2046FFF7D3FE284638BDFFF7BE
:1007E000DBFD2046FFF7DFFFF7E7FFF7D5FD2046EB
:1007F000FFF7D9FFF1E710B504460023FA2200F114
:10080000200101F015F80021204600F0F9FF10BD8D
:1008100010B50446FFF7EFFF0E23E3700323636078
:1008200010BD38B50D4609B9284638BD0446FFF756
:100830004DFF0028F8D1E37F0BB91D46F4E72046B1
:10084000FFF72BFF2046FFF7E3FFEDE708B5FFF7C3
:10085000DFFF08BD08B5FFF7F9FF08BD08B5FFF7D2
:10086000F9FF08BD38B50D4619B10446437D13B9EB
:100870001D46284638BDFFF794FD2046FFF7EEFFE2
:10088000F7E710B50446002340F2EE2200F11F0105
:1008900000F0CEFF0121204600F0B2FF10BD10B5E0
:1008A0000446FFF7EEFF0D23E3700323636010BDE2
:1008B00038B50D4609B9284638BD0446FFF706FF8E
:1008C0000028F8D194F820300BB91D46F3E72046F4
:1008D000FFF7D5FE2046FFF7E2FFECE738B5044608
:1008E000002302E00022E2540133032BFADD00254D
:1008F00065602046FFF704FD6575A56138BD10B53C
:100900000446FFF757FD2046FFF75CFD2046FFF742
:10091000E4FD2046FFF74FFE10BDFFFF10B5044673
:100920000023436006E001212046FFF755FE63687F
:10093000013363606368032B65D8E35C013B0E2BD6
:10094000F5D801A252F823F02709001A8509001AE8
:100950008F09001A9909001AA309001AAD09001A93
:10096000B709001AC109001ACB09001AD509001AE3
:10097000DF09001A2F09001AE909001AF309001A01
:10098000FD09001A01212046FFF7C0FECFE7012133
:100990002046FFF71DFDCAE701212046FFF72BFD8A
:1009A000C5E701212046FFF742FDC0E701212046AF
:1009B000FFF7C7FDBBE701212046FFF792FDB6E731
:1009C00001212046FFF7CBFEB1E701212046FFF7CA
:1009D000F3FEACE701212046FFF71FFEA7E7012148
:1009E0002046FFF737FEA2E701212046FFF719FF57
:1009F0009DE701212046FFF75BFF98E70121204694
:100A0000FFF730FF93E72046FFF77AFC10BD00BFE9
:100A10001C30884204DC0530884201D901230B7068
:100A20007047012303727047C1600123437270470E
:100A300000231C2B12D810B4094A02EB830112F8D0
:100A400023404A78488802EB4412064941F82200C4
:100A500001331C2BF0D95DF8044B7047704700BF81
:100A6000A81D001A0060084010B5174AD2F82031BE
:100A700023F4704343F41043C2F82031D2F82431F8
:100A800023F4704343F41043C2F8243101220F4988
:100A9000062000F09BFD00244CB10B4B5A6822F05D
:100AA0000C025A605A6842F003025A6010BD0848AE
:100AB00000EB840101238A78497810F8240000F0C3
:100AC00033FB0134E8E700BF0030044000CB280CC2
:100AD000A41D001A08B5FFF7ABFFFFF7C5FF08BD5F
:100AE0000022052A19D870B40C4911F8125001EBF4
:100AF00042014C780A4B05F5006653F82610012098
:100B0000A040014343F8261003EB4513002119557B
:100B10000132052AE8D970BC70477047281E001AB8
:100B200000400F400023032B16D830B40B4911F8B6
:100B3000132001EB43014D78094C02F5006254F893
:100B400022100120A84021EA000144F822100133BC
:100B5000032BEBD930BC7047704700BF201E001A32
:100B600000400F400023082B16D830B40B4911F871
:100B7000132001EB43014D78094C02F5006254F853
:100B800022100120A84021EA000144F8221001337C
:100B9000082BEBD930BC7047704700BF341E001AD9
:100BA00000400F4010B582B0084C6946204600F066
:100BB000CDFC074A6946204600F0E8FC0022694661
:100BC000204600F0FCFC02B010BD00BF00300E401B
:100BD000801A060010B50B4C204600F087FB6368B6
:100BE00023F004036360236823F0FF0343F007034B
:100BF00023600549204600F05AFB636843F0020376
:100C0000636010BD00500C40A086010008B50020B4
:100C100000F046FC044B40F60802C3F8842C03495C
:100C2000002000F051FC08BD0060084040420F0069
:100C300010B5074C204600F08BFB4FF4E131204605
:100C400000F0B0FB0323E3600123E36510BD00BFA8
:100C500000100C4005280BD8064A12F8103002EBA1
:100C6000400042785B0103F1402303F5702399545F
:100C7000704700BF281E001A08B5FFF7D9FF0948C2
:100C800000F028F8FFF76EFFFFF78CFFFFF7A2FFD9
:100C9000FFF7BCFFFFF724FFFFF744FF00F01CF84D
:100CA00008BD00BF00400F4003280FD8084A12F8C3
:100CB000103002EB400042785B0103F1402303F562
:100CC0007023985C003818BF0120704700207047DF
:100CD000201E001A7047FFFF08B5692000F0A2FA35
:100CE000014B186008BD00BF68000010F0B40B682D
:100CF00013F0800F02D023F040030B60074601255C
:100D00003AE04B6903FB02F3B3FBF5F31CE01C462E
:100D1000B0EB040C27D4674506D98D60771CCF60F3
:100D20000A618C61CB6167460132B2F5807F1DDCC0
:100D30000C6814F0400FE4D0731C02FA03FC4B69FA
:100D400003FB0CF3B3FBF5F3DFF838C06345EBD9D5
:100D5000DFF834C0634509D814F0800FD7D1741C74
:100D600023FA04F4D4E7CCF1000CD4E70136032EC7
:100D700001DC0122D9E70135042D01DC0026F6E76C
:100D8000F0BC7047FF5E4C0900D01213F0B599B06B
:100D900005460C465C22002101A800F0FBFF8023E1
:100DA00000936369059323798DF8043069462846DA
:100DB000FFF79CFF069BAB4227D0EB1A2ED41E46B2
:100DC000109B23F0400310936369159323798DF8EA
:100DD000443010A92846FFF789FF169BAB421FD06D
:100DE000EB1A25D41F462B4B9D4223D90E982D1A62
:100DF00033D4AE423BDCBE4231DC6D460FCD0FC476
:100E000095E80F0084E80F0006E06D460FCD0FC493
:100E100095E80F0084E80F0019B0F0BD5B42CEE703
:100E200010AD0FCD0FC495E80F0084E80F00F3E775
:100E30005B42D7E74023089363690D9308A92846CE
:100E4000FFF754FF0E9BAB42D0D108AD0FCD0FC4BE
:100E500095E80F0084E80F00DEE76D42C9E710ADAA
:100E60000FCD0FC495E80F0084E80F00D4E7AF4220
:100E700007DB08AD0FCD0FC495E80F0084E80F0025
:100E8000CAE710AD0FCD0FC495E80F0084E80F003E
:100E9000C2E700BF80778E0630B4054600231C20D1
:100EA00000E001331C2817D103EB43020B4901EB8F
:100EB0004202117981420FD003EB4302074C34F810
:100EC0001220AA42EDD803EB430204EB42025288FF
:100ED000AA42E6D30846E5E730BC7047541E001A24
:100EE00082B04FF47A7301930D4A936923F00201A3
:100EF00092698A4201D00A4A916123F00303094AA8
:100F00001168094A914201D943F00403044A9361EC
:100F1000019B5A1E0192002BFAD102B0704700BF0C
:100F200000000540481E001AFF2C31011230054B0D
:100F300053F8200010F0010F02D1C0F30460704795
:100F4000112070470000054000F11202034B53F8D6
:100F50002220034B185C00EA920070470000054015
:100F60004C1E001A08B510280AD8DFE800F0440B20
:100F70000D18210924272A2D09093034383C400056
:100F8000002008BD1E48FCE71E4BD3F82C3103F0AF
:100F90000703042B01D01C48F3E70020F1E7194BAD
:100FA000D3F82C3103F00703042B27D01648E8E7C9
:100FB000164B1868E5E7164B1868E2E7154B1868FA
:100FC000DFE7144B5868DCE700F068F8D9E7002148
:100FD00000F098F8D5E7012100F094F8D1E702215C
:100FE00000F090F8CDE7032100F08CF8C9E7042168
:100FF00000F088F8C5E74FF40040C2E70648C0E7B4
:10100000001BB7000030044040787D011C1E001A10
:10101000481E001A3800001080F0FA0238B5054664
:101020000C460879FFF79EFF6061194B2B44194A63
:10103000934221D818B3802323600023A360E36088
:10104000B5FBF0F32361144A954203D903FB00F08A
:10105000A84207D021462846FFF798FEA3688BB127
:10106000013BA360236983B1E2680AB1013AE260FF
:10107000013B2361002038BD4FF0FF30FBE74FF00C
:10108000FF30F8E74FF0FF30F5E74FF0FF30F2E7C1
:10109000103A6BFF1005940BFF5E4C0970B582B0DF
:1010A000164D6C6CC4F30360FFF75CFF0646144AF0
:1010B0000192286C10F001001DD0C4F30742C4F364
:1010C0000131C4F30125C4F380100132013102ABB8
:1010D0001D4415F8043C14F0800F08D138B95800AD
:1010E000B2FBF0F2B6FBF1F000FB02F003E0B6FB5E
:1010F000F1F002FB00F002B070BD00BF000005403F
:101100000102040838B50C460846FFF70FFF0546F4
:101110002046FFF719FF04462846FFF723FF013456
:10112000B0FBF4F038BDFFFF30B400F11604A400AA
:1011300004F1804404F5A02464681B2813D8112905
:101140001AD00E4D25400AB145F400650BB145F0AB
:10115000010545EA01611630800000F1804000F58C
:10116000A020416008E044F001041630800000F146
:10117000804000F5A020446030BC7047FEF7FFE0DF
:101180001B280DD800F116039B0003F1804303F5E3
:10119000A023586810F0010F04D1C0F30460704719
:1011A000112070471120704708B5FFF7E9FFFFF7DE
:1011B000D9FE08BD71B901210AB141F00401022B29
:1011C0000AD0B0F5A17F0AD3A0F59170064B43F881
:1011D000301070470321EFE741F02001F1E72030A4
:1011E000024B43F8301070470020054000100540C6
:1011F000B0F5A17F09D3094AA0F5917052F83030BB
:1012000043F0010342F830307047054A203052F86D
:10121000303043F0010342F8303070470020054081
:101220000010054010B50346B0F5A17F08D3A0F526
:1012300091720D4951F8324014F0010006D110BDF1
:1012400000F12002094951F83240F5E71846FFF74E
:1012500023FEFFF7A9FF14F0E00F03D10123B0FB39
:10126000F3F0ECE70223FAE7002005400010054008
:10127000034B984201D083207047A520704700BFE0
:1012800000500C40044B984202D040F202207047BC
:101290004FF4F170704700BF00500C40036823F416
:1012A0007F43090289B2194301600261704770B53A
:1012B00006460C46FFF7E6FFFFF7B4FF02224FF0A9
:1012C000FF33002100E02946A3420BD94D1C01FB4E
:1012D0000223B0FBF3F39C42F6D2FF2DF3D9023286
:1012E0000021F1E73046FFF7D9FF70BD10B5044685
:1012F000FFF7BEFFFFF77CFF2046FFF7C3FFFFF7B6
:1013000077FF636823F004036360236823F0FF031F
:1013100043F00703236002492046FFF7C8FF10BDD2
:10132000A0860100094B98420BD003F580539842E8
:1013300009D0A3F58023984201D0002070470120F6
:101340007047022070470320704700BF00100C4018
:1013500030B583B00446FFF7E5FF01231A4619466E
:101360000E4D35F81000FFF725FF0723A36000237B
:10137000E3656360E3602362E36463652365084BB0
:101380009C4206D00323E3601023A362019B03B0B9
:1013900030BD00232361A3690193F3E7C81E001A3F
:1013A000002008402DE9F04F83B001908846FFF7F8
:1013B000B9FF324B33F81000FFF734FF06464FF009
:1013C000FF3701244FF0000BA246D9462AE04242E3
:1013D0004B1C17E00AB31746AB46A24699460135A7
:1013E000AC421ED933093007A4FB000104FB0311F2
:1013F000621908FB02F2002300F02CFB02460B46A8
:101400000028E4DB9742EAD3002BE8D0190CE6D1A0
:10141000022BDFD8002DDDD0E1E71746AB46A24610
:10142000994601341FB10F2C01D80025D8E7B9F136
:10143000000F1ED0019A1146D36843F08003D36099
:101440005FFA89F31360C9F307235360D36823F06D
:101450008003D3604FEA0A13DBB20BF00F02134391
:101460008B6233090AFB03F3DA4409FB0AF9B3FB85
:10147000F9F9484603B0BDE8F08F00BFC01E001A5E
:10148000012909D1C0EBC000044B03EB80000269C5
:10149000137DDBB2042BFBD0704700BF00000010AF
:1014A00070B50446074EC500C0EBC00306EB8303CE
:1014B0009888FFF79DFE2C1B56F824306C229A6109
:1014C00070BD00BF000000102DE9F04104468846C1
:1014D0000B4DC600C0EBC0039F0005EB830398884B
:1014E000FFF7A0FEB0FBF8F1EB594A081A61341B74
:1014F00055F824301869091A5961BDE8F08100BF18
:1015000000000010034B984201D0032070470420D4
:10151000704700BF00400E4070B50D4614461E4691
:10152000FFF7F0FFFFF77EFE55B104FB06F404EB76
:1015300040006400B0FBF4F0C0B20138C0B270BD2E
:1015400004EB840304EB4304F1E7FFFF38B50546E1
:101550000C46FFF7D7FF01231A461946FFF72AFE6C
:101560000021E960084A2260217161710B2328463D
:10157000FFF7D2FF000240F4001023795B0403F46C
:10158000602303432B6038BD801A060070B5054602
:101590000E46046824F46F2424F470640A600B7906
:1015A000C3F10B03DBB24979FFF7B6FF44EA00242D
:1015B00033795B0403F4602323432B6070BD08B5CB
:1015C0000A710A68FFF7E2FF08BDFFFF70B58AB035
:1015D00005460E4614464CF250330993062818D09F
:1015E0000023012229460420FFF79EFD4A4A536C3E
:1015F00043F0010353648DF8085001A93046FFF70A
:101600000DFD464B9E4216D9019B13F0400F03D0AF
:10161000FEE7FFF765FCE3E713F0800F05D023F04A
:10162000800301930025012607E0049B0133049306
:101630000125002601E000252E469DF80820019B8B
:1016400043EA0263059A43EA0243039A43EA0233F8
:10165000049A43EA022343F400632F4A53642E4B57
:101660001B6C13F0010FFAD0002301220921042082
:10167000FFF75AFD06B34CF250330993099B5A1EEB
:101680000992002BFAD1019B43F0800301939DF84E
:10169000082043EA0263059A43EA0243039A43EAB5
:1016A0000233049A43EA022343F400631A4A536460
:1016B000002C2ED10AB070BD002DF9D04CF2503361
:1016C0000993099B5A1E0992002BFAD1049B5A1EBA
:1016D00004929DF80810019B43EA0163059943EACF
:1016E0000143039943EA013343EA022343F40063CD
:1016F000094A5364DCE70A4800EB8401CB788A7816
:10170000497810F82400FFF70FFD0134112CF2D9AD
:10171000D0E70024FAE700BF0000054080778E067E
:10172000D01E001A08B50B4A0B4B9A6003F50C73D8
:101730001B6903F47F63202B04D0FFF7CBF9FFF77D
:101740009BFA08BD044AD2F8883043F47003C2F80B
:101750008830F2E70000001A00ED00E07047FFFF5C
:1017600010B572B6194B1A4A1A600433194A1A6036
:10177000002305E0184A4FF0FF3142F823100133EF
:10178000072BF7D962B6154B07E003F10C049A68F2
:1017900059681868FEF7FAFC2346114A9342F4D3BD
:1017A00006E01C46596854F8080BFEF7FEFC234679
:1017B0000C4A9342F5D3FFF7B5FF00F0C7FAFFF7E5
:1017C000CDFF00F053F830BFFDE700BF003105400A
:1017D0000010DF10FFF7DF0180E200E01401001AC3
:1017E0005001001A7801001A7047704708B50520AB
:1017F000FFF730FA08BD08B50420FFF72BFA08BD43
:1018000008B50320FFF726FA08BD38B500242546A1
:1018100000E00134032C09D8E0B2FFF745FA0028B4
:10182000F7D10123A3401D43EDB2F2E7284638BDAE
:1018300000B583B0009313460A460521024800F024
:101840008BF803B05DF804FB6C00001008B50A4685
:101850000521024800F09AF808BD00BF6C00001096
:10186000014B01221A7070474000001070B5FFF75D
:1018700003FA294B1B68294AA2FB03239B09013B5E
:10188000B3F1807F09D2264A5360264BE02183F8CA
:10189000231000239360072313600521224800F0E2
:1018A00049F8224C2046FFF719F82046FFF727F8A1
:1018B00020E01D4D2601A9591C48FFF7A9F8AA5997
:1018C0000521284600F091F80134042C08D8164868
:1018D0002301C258052100F074F80028F4D0E8E78D
:1018E000FFF793FF014690B11048FFF79DF80F48AE
:1018F000FFF714F830BF0E4B1B78002BFAD00024F2
:101900000B4B1C700521084800F082F8DDE7074802
:10191000FFF787F8EBE700BF68000010D34D6210B7
:1019200010E000E000ED00E06C000010440000104A
:101930004000001030B400248C420BD2250100EB93
:1019400004120023435153609360137353739373D2
:101950000134F1E730BC704770B400248C4212D2DD
:10196000250100EB041645590DB10134F6E773600B
:10197000B36032609DF80C3033730123737300231E
:10198000B373104600E0002070BC704700238B4208
:1019900015D230B41C0100EB03150459944204D055
:1019A00001338B42F6D3002007E000232B606B60ED
:1019B000AB602B736B73AB73104630BC7047002069
:1019C000704770B40546002300E001338B4209D212
:1019D0001C0105EB031628599042F6D1B07B002874
:1019E000F3D000E0002070BC704700238B420ED281
:1019F00030B41C0100EB03150459944203D00133A9
:101A00008B42F6D301E00023AB7330BC70477047C4
:101A100000238B421DD210B406E00024547301242D
:101A2000947301338B4211D200EB0312547B002CD0
:101A3000F7D094680CB1013C94609468002CF0D10C
:101A4000147B002CE9D054689460E8E75DF8044BFF
:101A50007047704753B94AB9002908BF00281CBF16
:101A60004FF0FF314FF0FF3000F06EB9ADF1080CD0
:101A70006DE904CE00F006F8DDF804E0DDE90223AC
:101A800004B070472DE9F047089D04468C46002BB2
:101A900040F083808A42174647D9B2FA82F242B1B7
:101AA000C2F1200024FA00F09140974040EA010C76
:101AB00094404FEA1748230CBCFBF8F61FFA87FE48
:101AC00008FB16C143EA014306FB0EF1994209D90E
:101AD000FB1806F1FF3080F01981994240F216811F
:101AE000023E3B445B1AA4B2B3FBF8F008FB103390
:101AF00044EA034400FB0EFEA64509D93C1900F157
:101B0000FF3380F00581A64540F2028102383C4453
:101B100040EA0640A4EB0E0400261DB1D440002389
:101B2000C5E900433146BDE8F08702B9FFDEB2FAED
:101B300082F2002A50D1CB1B4FEA174E1FFA87F8CA
:101B40000126B3FBFEFC210C0EFB1C3341EA0341D2
:101B500008FB0CF38B4207D979180CF1FF3002D245
:101B60008B4200F2E9808446C91AA3B2B1FBFEF0B1
:101B70000EFB101143EA014408FB00F8A04507D909
:101B80003C1900F1FF3302D2A04500F2D98018467B
:101B9000A4EB080440EA0C40BFE78B4209D9002DB2
:101BA00000F0B1800026C5E9000130463146BDE8AD
:101BB000F087B3FA83F6002E4AD18B4202D38242D9
:101BC00000F2B880841A61EB030101208C46002DDD
:101BD000A8D0C5E9004CA5E7C2F1200320FA03F61E
:101BE000974001FA02F04FEA174ED9403043030CF8
:101BF000B1FBFEF61FFA87F80EFB161143EA01430C
:101C000006FB08F1994204FA02F409D9FB1806F11F
:101C1000FF3C80F08D80994240F28A80023E3B4436
:101C20005B1A81B2B3FBFEF00EFB103341EA0341B5
:101C300000FB08F38B4207D9791800F1FF3C73D2FF
:101C40008B4271D902383944CB1A40EA064678E70C
:101C5000C6F1200C03FA06F422FA0CF31C4320FA16
:101C60000CF701FA06F34FEA144E21FA0CF11F4368
:101C70003B0CB1FBFEF91FFA84F80EFB191143EA85
:101C8000014109FB08FA8A4502FA06F200FA06F356
:101C900008D9611809F1FF3048D28A4546D9A9F11F
:101CA00002092144A1EB0A01BFB2B1FBFEF00EFB19
:101CB000101147EA014700FB08F8B84507D9E719B2
:101CC00000F1FF312ED2B8452CD90238274440EA22
:101CD0000940A7EB0807A0FB02894F45C6464946C5
:101CE0001AD317D05DB1B3EB0E0267EB010707FA09
:101CF0000CFCF2404CEA0202F740C5E9002700263E
:101D00003146BDE8F0872E4628460BE70646E9E651
:101D10001846FDE64345E5D2B8EB020E69EB040137
:101D20000138DFE70846D2E760468DE78146B9E72C
:101D3000664675E730464AE7ACF1020C394413E7D2
:101D400002383C4424E700BF704700BF70B50D4D1A
:101D50000D4C641BA4100026A64209D10B4D0C4C5F
:101D6000FFF743FD641BA4100026A64205D170BDF9
:101D700055F8043B98470136EEE755F8043B984781
:101D80000136F2E7181F001A181F001A181F001A50
:101D9000181F001A02440346934200D1704703F80B
:101DA000011BF9E7010F0101020044000201440098
:101DB00002024400020A4000020B4000020C4000F4
:101DC00001005000010150000102500001065000C6
:101DD0000601500006045000060550000607540096
:101DE0000608540006095000060A5000060B500071
:101DF000060C50000F04F0000103D5000104D500CB
:101E000007011600070256000203520002045200A6
:101E1000090552000906570006025700000000009D
:101E20000004000800090109050005010502000E73
:101E3000010B010C030003030304050F0510030548
:101E4000030603070208FFFF001BB700030F0F0F75
:101E5000FF00FFFF000005000A0020002400090029
:101E60004000400005006000A6000400C000C30060
:101E70000200E000E0000100000100010300200179
:101E800020010600400140010C00420142011900FE
:101E9000620162011300820182011200A201A2010B
:101EA0001100C201C2011000E201E2010F000202B2
:101EB00002020E00220222020D00230223021C0055
:101EC000C201A2018201620181008200A100A20080
:101ED00000010100090901000A09010001070101CF
:101EE00002090100060901000C0901010D090100A8
:101EF0000E0901000F09010010090100110901007C
:101F00001209010013090100141101001911010047
:081F10001A1101001B11010070
:081F18006CFBFF7F01000000DB
:101F200000100A40220000008114001A0000000086
:101F300000000000000000000000000000000E4053
:101F4000010000008114001A0000000000000000E1
:081F5000000000000000000089
:040000051A00176165
:00000001FF
