:020000041A00E0
:10000000008000107110001A7B01001A7D01001A97
:100010007F01001A8101001A8301001A1468FF533E
:100020000000000000000000000000008501001A30
:100030008701001A000000008901001A3916001A11
:100040007901001A7901001A7901001A00000000F4
:100050007901001A7901001A7901001A7901001A50
:10006000C918001A7901001A7901001A7901001AD9
:100070009114001AD114001A1115001A5515001AFE
:100080007901001A7901001A7901001A7901001A20
:100090007901001A7901001A7901001A7901001A10
:1000A000BD01001A7901001AB518001ABF18001A0C
:1000B0007901001A7901001A7901001A7901001AF0
:1000C000E51C001AEF1C001AF91C001A7901001A2D
:1000D0007901001A7901001A7901001A7901001AD0
:1000E0007901001A7901001A7901001A7901001AC0
:1000F000000000007901001A7901001A7901001A44
:10010000000000007901001A7901001A7901001A33
:100110007901001AD824001A00000010D000000055
:10012000D824001A0000081000000000D824001A8B
:100130000000002000000000D824001A00800020E9
:1001400000000000D824001A00C0002000000000B9
:10015000D0000010A80000000000081000000000FF
:1001600000000020000000000080002000000000CF
:1001700000C0002000000000FEE7FEE7FEE7FEE70B
:10018000FEE7FEE7FEE7FEE7FEE7FEE70023934219
:100190000AD210B450F8044B41F8044B0433934294
:1001A000F8D35DF8044B7047704700238B4204D2AC
:1001B000002240F8042B0433F8E7704708B500200C
:1001C00001F050FA08BDFFFFFFFFFFFFFFFFFFFF39
:1001D000FFFFFFFFFFFFFFFFFFFFFFFFFFFFFFFF2F
:1001E000FFFFFFFFFFFFFFFFFFFFFFFFFFFFFFFF1F
:1001F000FFFFFFFFFFFFFFFFFFFFFFFFFFFFFFFF0F
:10020000FFFFFFFFFFFFFFFFFFFFFFFFFFFFFFFFFE
:10021000FFFFFFFFFFFFFFFFFFFFFFFFFFFFFFFFEE
:10022000FFFFFFFFFFFFFFFFFFFFFFFFFFFFFFFFDE
:10023000FFFFFFFFFFFFFFFFFFFFFFFFFFFFFFFFCE
:10024000FFFFFFFFFFFFFFFFFFFFFFFFFFFFFFFFBE
:10025000FFFFFFFFFFFFFFFFFFFFFFFFFFFFFFFFAE
:10026000FFFFFFFFFFFFFFFFFFFFFFFFFFFFFFFF9E
:10027000FFFFFFFFFFFFFFFFFFFFFFFFFFFFFFFF8E
:10028000FFFFFFFFFFFFFFFFFFFFFFFFFFFFFFFF7E
:10029000FFFFFFFFFFFFFFFFFFFFFFFFFFFFFFFF6E
:1002A000FFFFFFFFFFFFFFFFFFFFFFFFFFFFFFFF5E
:1002B000FFFFFFFFFFFFFFFFFFFFFFFFFFFFFFFF4E
:1002C000FFFFFFFFFFFFFFFFFFFFFFFFFFFFFFFF3E
:1002D000FFFFFFFFFFFFFFFFFFFFFFFFFFFFFFFF2E
:1002E000FFFFFFFFFFFFFFFFFFFFFFFFFFFFFFFF1E
:1002F000FFFFFFFFFFFFFFFFFFFFFFFFFFFFFFFF0E
:1003000000231C2B12D810B4094A02EB830112F807
:1003100023404A78488802EB4412064941F82200FB
:1003200001331C2BF0D95DF8044B7047704700BFB8
:10033000FC21001A0060084010B5174AD2F820319D
:1003400023F4704343F41043C2F82031D2F824312F
:1003500023F4704343F41043C2F8243101220F49BF
:10036000062000F0BBFD00244CB10B4B5A6822F074
:100370000C025A605A6842F003025A6010BD0848E5
:1003800000EB840101238A78497810F8240000F0FA
:100390000BFB0134E8E700BF0030044000CB280C21
:1003A000F821001A08B5FFF7ABFFFFF7C5FF08BD3E
:1003B0000022052A19D870B40C4911F8125001EB2B
:1003C00042014C780A4B05F5006653F826100120CF
:1003D000A040014343F8261003EB451300211955B3
:1003E0000132052AE8D970BC704770477C22001A98
:1003F00000400F400023032B16D830B40B4911F8EE
:10040000132001EB43014D78094C02F5006254F8CA
:1004100022100120A84021EA000144F822100133F3
:10042000032BEBD930BC7047704700BF7422001A11
:1004300000400F400023082B16D830B40B4911F8A8
:10044000132001EB43014D78094C02F5006254F88A
:1004500022100120A84021EA000144F822100133B3
:10046000082BEBD930BC7047704700BF8822001AB8
:1004700000400F4010B582B0084C6946204600F09D
:10048000EDFC074A6946204600F008FD0022694657
:10049000204600F01CFD02B010BD00BF00300E4031
:1004A000801A060010B50B4C204600F05FFB636815
:1004B00023F004036360236823F0FF0343F0070382
:1004C00023600549204600F032FB636843F00203D5
:1004D000636010BD00500C40A086010008B50020EC
:1004E00000F03EFC044B40F60802C3F8842C03499C
:1004F000002000F049FC08BD0060084040420F00A9
:1005000010B5074C204600F063FB4FF4E131204664
:1005100000F0A8FB0323E3600123E36510BD00BFE7
:1005200000100C4008B5FFF7EBFF094800F012F887
:10053000FFF780FFFFF79EFFFFF7B4FFFFF7CEFF47
:10054000FFF736FFFFF756FF00F006F808BD00BFC3
:1005500000400F407047FFFF08B5692000F0A2FA85
:10056000014B186008BD00BF70010010F0B40B68AB
:1005700013F0800F02D023F040030B6007460125E3
:100580003AE04B6903FB02F3B3FBF5F31CE01C46B6
:10059000B0EB040C27D4674506D98D60771CCF607B
:1005A0000A618C61CB6167460132B2F5807F1DDC48
:1005B0000C6814F0400FE4D0731C02FA03FC4B6982
:1005C00003FB0CF3B3FBF5F3DFF838C06345EBD95D
:1005D000DFF834C0634509D814F0800FD7D1741CFC
:1005E00023FA04F4D4E7CCF1000CD4E70136032E4F
:1005F00001DC0122D9E70135042D01DC0026F6E7F4
:10060000F0BC7047FF5E4C0900D01213F0B599B0F2
:1006100005460C465C22002101A801F0E5FD80237F
:1006200000936369059323798DF804306946284661
:10063000FFF79CFF069BAB4227D0EB1A2ED41E4639
:10064000109B23F0400310936369159323798DF871
:10065000443010A92846FFF789FF169BAB421FD0F4
:10066000EB1A25D41F462B4B9D4223D90E982D1AE9
:1006700033D4AE423BDCBE4231DC6D460FCD0FC4FD
:1006800095E80F0084E80F0006E06D460FCD0FC41B
:1006900095E80F0084E80F0019B0F0BD5B42CEE78B
:1006A00010AD0FCD0FC495E80F0084E80F00F3E7FD
:1006B0005B42D7E74023089363690D9308A9284656
:1006C000FFF754FF0E9BAB42D0D108AD0FCD0FC446
:1006D00095E80F0084E80F00DEE76D42C9E710AD32
:1006E0000FCD0FC495E80F0084E80F00D4E7AF42A8
:1006F00007DB08AD0FCD0FC495E80F0084E80F00AD
:10070000CAE710AD0FCD0FC495E80F0084E80F00C5
:10071000C2E700BF80778E0630B4054600231C2058
:1007200000E001331C2817D103EB43020B4901EB16
:100730004202117981420FD003EB4302074C34F897
:100740001220AA42EDD803EB430204EB4202528886
:10075000AA42E6D30846E5E730BC7047A822001A53
:1007600082B04FF47A7301930D4A936923F002012A
:1007700092698A4201D00A4A916123F00303094A2F
:100780001168094A914201D943F00403044A936174
:10079000019B5A1E0192002BFAD102B0704700BF94
:1007A000000005409C22001AFF2C31011230054B3D
:1007B00053F8200010F0010F02D1C0F3046070471D
:1007C000112070470000054000F11202034B53F85E
:1007D0002220034B185C00EA92007047000005409D
:1007E000A022001A08B510280AD8DFE800F0440B50
:1007F0000D18210924272A2D09093034383C4000DE
:10080000002008BD1E48FCE71E4BD3F82C3103F036
:100810000703042B01D01C48F3E70020F1E7194B34
:10082000D3F82C3103F00703042B27D01648E8E750
:10083000164B1868E5E7164B1868E2E7154B186881
:10084000DFE7144B5868DCE700F068F8D9E70021CF
:1008500000F098F8D5E7012100F094F8D1E70221E3
:1008600000F090F8CDE7032100F08CF8C9E70421EF
:1008700000F088F8C5E74FF40040C2E70648C0E73B
:10088000001BB7000030044040787D017022001A40
:100890009C22001AD000001080F0FA0238B50546FC
:1008A0000C460879FFF79EFF6061194B2B44194AEB
:1008B000934221D818B3802323600023A360E36010
:1008C000B5FBF0F32361144A954203D903FB00F012
:1008D000A84207D021462846FFF798FEA3688BB1AF
:1008E000013BA360236983B1E2680AB1013AE26087
:1008F000013B2361002038BD4FF0FF30FBE74FF094
:10090000FF30F8E74FF0FF30F5E74FF0FF30F2E748
:10091000103A6BFF1005940BFF5E4C0970B582B066
:10092000164D6C6CC4F30360FFF75CFF0646144A77
:100930000192286C10F001001DD0C4F30742C4F3EB
:100940000131C4F30125C4F380100132013102AB3F
:100950001D4415F8043C14F0800F08D138B9580034
:10096000B2FBF0F2B6FBF1F000FB02F003E0B6FBE5
:10097000F1F002FB00F002B070BD00BF00000540C6
:100980000102040838B50C460846FFF70FFF05467C
:100990002046FFF719FF04462846FFF723FF0134DE
:1009A000B0FBF4F038BDFFFF30B400F11604A40032
:1009B00004F1804404F5A02464681B2813D811298D
:1009C0001AD00E4D25400AB145F400650BB145F033
:1009D000010545EA01611630800000F1804000F514
:1009E000A020416008E044F001041630800000F1CE
:1009F000804000F5A020446030BC7047FEF7FFE067
:100A00001B280DD800F116039B0003F1804303F56A
:100A1000A023586810F0010F04D1C0F304607047A0
:100A2000112070471120704708B5FFF7E9FFFFF765
:100A3000D9FE08BD71B901210AB141F00401022BB0
:100A40000AD0B0F5A17F0AD3A0F59170064B43F808
:100A5000301070470321EFE741F02001F1E720302B
:100A6000024B43F83010704700200540001005404D
:100A7000B0F5A17F09D3094AA0F5917052F8303042
:100A800043F0010342F830307047054A203052F8F5
:100A9000303043F0010342F8303070470020054009
:100AA0000010054010B50346B0F5A17F08D3A0F5AE
:100AB00091720D4951F8324014F0010006D110BD79
:100AC00000F12002094951F83240F5E71846FFF7D6
:100AD00023FEFFF7A9FF14F0E00F03D10123B0FBC1
:100AE000F3F0ECE70223FAE7002005400010054090
:100AF000034B984201D083207047A520704700BF68
:100B000000500C40044B984202D040F20220704743
:100B10004FF4F170704700BF00500C40036823F49D
:100B20007F43090289B2194301600261704770B5C1
:100B300006460C46FFF7E6FFFFF7B4FF02224FF030
:100B4000FF33002100E02946A3420BD94D1C01FBD5
:100B50000223B0FBF3F39C42F6D2FF2DF3D902320D
:100B60000021F1E73046FFF7D9FF70BD10B504460C
:100B7000FFF7BEFFFFF77CFF2046FFF7C3FFFFF73D
:100B800077FF636823F004036360236823F0FF03A7
:100B900043F00703236002492046FFF7C8FF10BD5A
:100BA000A0860100094B98420BD003F58053984270
:100BB00009D0A3F58023984201D00020704701207E
:100BC0007047022070470320704700BF00100C40A0
:100BD00030B583B00446FFF7E5FF01231A461946F6
:100BE0000E4D35F81000FFF725FF0723A360002303
:100BF000E3656360E3602362E36463652365084B38
:100C00009C4206D00323E3601023A362019B03B040
:100C100030BD00232361A3690193F3E71C23001A6D
:100C20000020084038B505460C46FFF7BBFF0C4BCB
:100C300033F81000FFF736FF2101B0FBF1F1CAB223
:100C4000EB6843F08003EB602A60C1F307236B601D
:100C5000EB6823F08003EB60B0FBF1F0000938BDD6
:100C60001423001A2DE9F04F83B001908846FFF756
:100C700099FF324B33F81000FFF714FF06464FF090
:100C8000FF3701244FF0000BA246D9462AE042422A
:100C90004B1C17E00AB31746AB46A24699460135EE
:100CA000AC421ED933093007A4FB000104FB031139
:100CB000621908FB02F2002301F0F6F802460B4627
:100CC0000028E4DB9742EAD3002BE8D0190CE6D1E8
:100CD000022BDFD8002DDDD0E1E71746AB46A24658
:100CE000994601341FB10F2C01D80025D8E7B9F17E
:100CF000000F1ED0019A1146D36843F08003D360E1
:100D00005FFA89F31360C9F307235360D36823F0B4
:100D10008003D3604FEA0A13DBB20BF00F021343D8
:100D20008B6233090AFB03F3DA4409FB0AF9B3FBCC
:100D3000F9F9484603B0BDE8F08F00BF1423001A4C
:100D4000012909D1C0EBC000044B03EB800002690C
:100D5000137DDBB2042BFBD0704700BF00000010F6
:100D600070B50446074EC500C0EBC00306EB830315
:100D70009888FFF77DFE2C1B56F824306C229A6170
:100D800070BD00BF000000102DE9F0410446884608
:100D90000B4DC600C0EBC0039F0005EB8303988892
:100DA000FFF780FEB0FBF8F1EB594A081A61341BDB
:100DB00055F824301869091A5961BDE8F08100BF5F
:100DC00000000010094B98420BD0A3F580539842C5
:100DD00009D0A3F57833984201D08420704785204C
:100DE0007047A4207047A320704700BF00400C400C
:100DF00008B5FFF7E7FFFFF73BFE08BD4268002399
:100E0000436001238360022343608368002BFCD18D
:100E100042607047034B984201D003207047042082
:100E2000704700BF00400E4070B50D4614461E4688
:100E3000FFF7F0FFFFF736FE55B104FB06F404EBB5
:100E400040006400B0FBF4F0C0B20138C0B270BD25
:100E500004EB840304EB4304F1E7FFFF38B50546D8
:100E60000C46FFF7D7FF01231A461946FFF7E2FDAC
:100E70000021E960084A2260217161710B23284634
:100E8000FFF7D2FF000240F4001023795B0403F463
:100E9000602303432B6038BD801A060070B50546F9
:100EA0000E46046824F46F2424F470640A600B79FD
:100EB000C3F10B03DBB24979FFF7B6FF44EA002424
:100EC00033795B0403F4602323432B6070BD08B5C2
:100ED0000A710A68FFF7E2FF08BDFFFF70B58AB02C
:100EE00005460E4614464CF250330993062818D096
:100EF0000023012229460420FFF756FD4A4A536C7D
:100F000043F0010353648DF8085001A93046FFF700
:100F1000C5FC464B9E4216D9019B13F0400F03D0EF
:100F2000FEE7FFF71DFCE3E713F0800F05D023F089
:100F3000800301930025012607E0049B01330493FD
:100F40000125002601E000252E469DF80820019B82
:100F500043EA0263059A43EA0243039A43EA0233EF
:100F6000049A43EA022343F400632F4A53642E4B4E
:100F70001B6C13F0010FFAD0002301220921042079
:100F8000FFF712FD06B34CF250330993099B5A1E2A
:100F90000992002BFAD1019B43F0800301939DF845
:100FA000082043EA0263059A43EA0243039A43EAAC
:100FB0000233049A43EA022343F400631A4A536457
:100FC000002C2ED10AB070BD002DF9D04CF2503358
:100FD0000993099B5A1E0992002BFAD1049B5A1EB1
:100FE00004929DF80810019B43EA0163059943EAC6
:100FF0000143039943EA013343EA022343F40063C4
:10100000094A5364DCE70A4800EB8401CB788A780C
:10101000497810F82400FFF7C7FC0134112CF2D9ED
:10102000D0E70024FAE700BF0000054080778E0675
:101030002423001A08B50B4A0B4B9A6003F50C7376
:101040001B6903F47F63202B04D0FFF7ABF9FFF794
:1010500069FA08BD044AD2F8883043F47003C2F834
:101060008830F2E70000001A00ED00E07047FFFF53
:1010700010B572B6194B1A4A1A600433194A1A602D
:10108000002305E0184A4FF0FF3142F823100133E6
:10109000072BF7D962B6154B07E003F10C049A68E9
:1010A00059681868FFF772F82346114A9342F4D33F
:1010B00006E01C46596854F8080BFFF776F82346FB
:1010C0000C4A9342F5D3FFF7B5FF01F069F8FFF73B
:1010D000CDFF00F0C9FE30BFFDE700BF0031054085
:1010E0000010DF10FFF7DF0180E200E01401001ABA
:1010F0005001001A7801001A70477047044B1860BD
:10110000044A136843F0010313600120704700BFD5
:1011100038000010001000E030B40B4D00EB8000F0
:101120002C182856087094F90110117094F90220B7
:101130001A7094F90320029B1A7094F90420039BFF
:101140001A7030BC704700BF6C23001A10F1020FF8
:1011500000F0C68070B584B00C46B0F1FF3F00F0DF
:10116000C18000238DF80F308DF80E308DF80D30D2
:101170008DF80C308DF80B300DF10B03019303ABA0
:1011800000930DF10D030DF10E020DF10F01FFF7AC
:10119000C3FF052C00F2A980DFE804F00880264494
:1011A00062035348FFF7D6F901209CE09DF80F1029
:1011B0009DF80E309DF80D2042F0D00203EB411354
:1011C0004C4941F823209DF80C309DF90B2001205B
:1011D00000FA02F1464C03F5006354F8232022EA9A
:1011E000010244F823207EE09DF80F109DF80E3098
:1011F0009DF80D2042F0C00203EB41133D4941F838
:1012000023209DF80C309DF90B20012000FA02F1FB
:10121000374C03F5006354F8232022EA010244F816
:10122000232060E09DF80F109DF80E309DF80D20F2
:1012300042F0D80203EB41132E4941F823209DF8D8
:101240000C309DF90B20012000FA02F1284C03F527
:10125000006354F8232022EA010244F8232042E0EC
:101260009DF80F109DF80E309DF80D2042F0C80239
:1012700003EB41131F4941F823209DF80C309DF9E1
:101280000B20012000FA02F1194C03F5006354F819
:10129000232022EA010244F8232024E09DF80F10C5
:1012A0009DF80E309DF80D2042F0D00203EB411363
:1012B000104941F823209DF80C009DF90B100122E4
:1012C0008A400B4B00F5006553F82560324343F824
:1012D0002520C9B203EB401300225A54204602E0F5
:1012E00000207047002004B070BD0020FBE700BF65
:1012F00000400F400060084010F1020F2DD010B5E3
:1013000084B00C46B0F1FF3F29D000238DF80F3098
:101310008DF80E308DF80D308DF80C308DF80B30C7
:101320000DF10B03019303AB00930DF10D030DF1D0
:101330000E020DF10F01FFF7EFFE9DF80C309DF846
:101340000B20211E18BF01215B0103F1402303F58F
:1013500070239954012004B010BD00207047002074
:10136000F9E7FEE77047FFFF2DE9F041002976D04D
:10137000054616460F4604463E4B00EB400203EB83
:10138000820853F82200FFF733FD98F8043003F089
:101390001F015B0901228A404033374941F823206D
:1013A00004EB4403334A02EB83031B795A0954329A
:1013B000314951F8222003F01F03012101FA03F300
:1013C0001A42EDD02B4B05EB450203EB820853F894
:1013D00022402046FFF712FD2B01284AD6506369B0
:1013E00043F001036361A761636943F00203636132
:1013F000636843F001036360D8F8082053B2002B00
:1014000030DB03F1604303F56143C02283F800231E
:1014100005EB4503174A02EB83039A6853B2002B8E
:1014200008DB02F01F025B09012101FA02F21449F4
:1014300041F8232005EB45050E4B03EB8505AA6813
:1014400053B2002B09DB02F01F025B09012101FAF4
:1014500002F260330A4941F82320BDE8F081002000
:10146000FFF77FFF02F00F02064B1344C0221A76EB
:10147000CEE700BF5424001A003005403C000010A5
:1014800000E100E0FCEC00E0CC2303FB00F070473F
:1014900038B5002401E00134E4B2032C12D865B25F
:1014A000094B1A6804F00F0101238B401A42F2D055
:1014B000064B53F82430002098470123AB40024AE2
:1014C0001360E8E738BD00BF004008403C00001052
:1014D00038B5002401E00134E4B2032C13D865B21E
:1014E000094B1A6804F00F0101238B401A42F2D015
:1014F000231D064A52F82330002098470123AB40B1
:10150000014A1360E7E738BD005008403C00001076
:1015100038B5002401E00134E4B2032C14D865B2DC
:101520000A4B1A6804F00F0101238B401A42F2D0D3
:1015300004F10803064A52F823300020984701239B
:10154000AB40024A1360E6E738BD00BF00300C40F4
:101550003C00001038B5002401E00134E4B2032C53
:1015600014D865B20A4B1A6804F00F0101238B40AE
:101570001A42F2D004F10C03064A52F8233000203C
:1015800098470123AB40024A1360E6E738BD00BF2D
:1015900000400C403C000010014BD3E900017047B3
:1015A000E000001018B1044B07221A607047024B8C
:1015B00000221A60704700BF10E000E038B5024614
:1015C0000B4652EA030128D010F1FF3443F1FF35F6
:1015D000002D08BF322C25D21349C1E9002313493D
:1015E0000C68A4FB000104FB03114FF47A72002382
:1015F00000F05AFC0138B0F1807F09D20C4B5860E2
:101600000C4AE02182F8231000229A6007221A6017
:101610000120FFF7C7FF012005E00020FFF7C2FF10
:10162000002000E0002038BD800000107001001094
:1016300010E000E000ED00E008B5074A13685168CB
:10164000013341F1000113605160044B1B6813B179
:10165000034A1068984708BDE0000010E800001039
:10166000D800001070B5044600EB40021F4B53F841
:1016700022506B69DEB213F0010F09D020B91C4B68
:101680001B680BB100209847032C13D0052C18D0F1
:1016900016F0200F0DD06B6813F0020F09D024B99B
:1016A000144B1B680BB100209847032C10D0052C5D
:1016B00015D070BD104B1B68002BE7D00020984759
:1016C000E4E70E4B1B68002BE2D000209847DFE7D1
:1016D0000B4B1B68002BEAD000209847E7E7094B2B
:1016E0001B68002BE5D000209847E2E78424001A0D
:1016F000EC000010F8000010F0000010F4000010E2
:10170000FC0000100001001041B300EB40031F4A31
:1017100002EB830393F90A30002B18DB03F16043DB
:1017200003F56143A02283F8002300EB4000174B30
:1017300003EB800090F90A30002B25DB03F01F013A
:101740005B0901228A40124941F82320704703F0C7
:101750000F03104A1A44A0231376E6E700EB40007B
:101760000A4B03EB800090F90A30002B0CDB03F0EE
:101770001F015B0901228A402033054941F82320DB
:10178000BFF34F8FBFF36F8F704700BF8424001AE1
:1017900000E100E0FCEC00E011B101291DD0704730
:1017A00082B101280FD9C31EDBB2012B0ED9052847
:1017B0000FD0052300EB4000134A52F82020516857
:1017C0000B4353607047114B1A60ECE7104B1A60E3
:1017D000EDE7104B1A600523ECE7002AF2D0012850
:1017E00007D9C31EDBB2012B06D9052807D0022377
:1017F000E0E7094B1A60F4E7084B1A60F5E7084B7D
:101800001A600223D6E700BF8424001AEC000010FF
:10181000F0000010F4000010F8000010FC000010B0
:101820000001001000EB4000024B53F82030186814
:10183000C0B270478424001A2DE9F8430446894653
:10184000194D00EB400305EB830655F8237038462D
:10185000FFF7BEF949463846FFF7E4F90723BB60B6
:101860003B680123FB6530797379B27942F0180245
:101870000E4903EB401341F82320F079337A727A52
:1018800042F0D00203EB401341F82320012C01D099
:10189000BDE8F883064AD36C43F03003D3641A22C0
:1018A000C1F80823F4E700BF8424001A0060084050
:1018B0000010084008B50320FFF7D4FE08BD08B5A6
:1018C0000520FFF7CFFE08BD08B5044B1B681B6859
:1018D000DB68034A1068984708BD00BF7401001018
:1018E0000401001008B5FEF737FE1A4B1868FFF721
:1018F00005FC01200021FFF761FE05210020FFF714
:1019000025FC00212420FFF721FC00212520FFF7E2
:101910001DFC00212620FFF719FC00212720FFF7DE
:1019200015FC01212820FFF711FC01212920FFF7D8
:101930000DFC01212A20FFF709FC01212B20FFF7D4
:1019400005FC01212C20FFF701FC01212D20FFF7D0
:10195000FDFB08BD700100102DE9F8438146884663
:10196000FFF71AFE06460F46FFF716FE841B61EBD3
:101970000705064BD3E900234846414600F094FA98
:101980008D4208BF8442EFD3BDE8F8838000001089
:1019900000EB800300EB4302234B134493F9033025
:1019A000002B0ADB192B0CDD00EB800300EB43025C
:1019B0001D4B13441922DA7003E01B4B1344002221
:1019C000DA7000EB800300EB4302174B134493F9EA
:1019D0000430002B0ADB192B0CDD00EB800300EB3D
:1019E0004302114B134419221A7103E00E4B1344A6
:1019F00000221A7100EB800300EB43020A4B1344F0
:101A000093F90530002B0ADB192B07DD00EB80036F
:101A100000EB4300044B18441923437170470248FC
:101A200010440023437170470801001010B5124B99
:101A30001C7804B110BD4FF47A70FFF725FD014604
:101A40000E4A0320FFF790FC10E00D4804EB8401E0
:101A500004EB41014318002242545A709A70DA7024
:101A60001A715A7164229A720134E4B2082CECD9CA
:101A7000014B01221A70DDE76B010010851A001A74
:101A80000801001038B500241DE0002140B2FFF726
:101A900033FC2FE005EB850305EB4302484B134471
:101AA000002193F90100FFF727FC2FE005EB8503E8
:101AB00005EB4305424B1D44002195F90200FFF759
:101AC0001BFC0134E4B2082C2DD8254604EB84031A
:101AD00004EB43033A4AD05C0028F2D004EB8403C1
:101AE00004EB4302364B134493F90320354B1B6838
:101AF0009A42CAD005EB850305EB4302304B1344F1
:101B000093F904202F4B1B689A42C3D005EB850341
:101B100005EB43022A4B134493F90520294B1B681C
:101B20009A42CED1C2E7274A136801331360192BBA
:101B300044D038BD012140B2FFF7DEFB21E0204B4D
:101B40001344012193F90100FFF7D6FB23E01D4B5D
:101B500000221A600134E4B2082CEAD8254604EBCE
:101B6000840304EB4303164AD05C0028F2D004EB54
:101B7000840304EB4302124B134493F90330002B0C
:101B8000D8DC05EB850305EB43020D4B134493F9B9
:101B90000430002BD3DC05EB850305EB4302084B37
:101BA000134493F90530002BD1DD1546044B1D4439
:101BB000012195F90200FFF79FFBC8E70024CBE75E
:101BC000080100106C0100102DE9F04104460E469A
:101BD00090461F46FFF72AFF0D4B04EB840004EBF1
:101BE00040041D191E5585F80180AF70012170B2A7
:101BF000FFF7ACFA012195F90100FFF7A7FA0121DF
:101C000095F90200FFF7A2FA0120BDE8F08100BFBC
:101C10000801001038B500EB800500EB4504054DC8
:101C20002C44E1702271637100236372FFF7B0FEF0
:101C300038BD00BF0801001000EB800300EB43003B
:101C4000014B1844C07870470801001000EB800376
:101C500000EB4300014B1844007970470801001065
:101C600000EB800300EB4300014B184440797047C0
:101C70000801001001238340014A5362704700BFEE
:101C80000070084038B5134B1B5C134AD169012220
:101C900082400A420CD011498C6803EB430310497F
:101CA00001EBC3035C600C4BDA61FFF7E3FF38BD67
:101CB0000A498C680A4903EB430501EBC505AC6092
:101CC0006D68641B03EB430301EBC303DC60024B51
:101CD0001A62EAE7CC24001A00700840004008406D
:101CE0008800001008B50020FFF7CCFF08BD08B53C
:101CF0000120FFF7C7FF08BD08B50220FFF7C2FFAC
:101D000008BD38B50320FFF78DFD6138192820D8AC
:101D1000DFE800F0201F9688751F1F1F1F1F1F1F61
:101D20001F1F1F1F0D1F541F1F1F41621F2E00204A
:101D3000FFF782FF441CE4B20020FFF787FF05464F
:101D40000020FFF78DFF43B26AB261B20020FFF7B7
:101D500061FF38BD0020FFF779FF04460020FFF740
:101D60007FFF43B262B20C210020FFF753FFF0E780
:101D70000020FFF761FF441EE4B20020FFF766FF7A
:101D800005460020FFF76CFF43B26AB261B2002043
:101D9000FFF740FFDDE70020FFF74EFF054600207C
:101DA000FFF754FF441CE4B20020FFF759FF43B291
:101DB00062B269B20020FFF72DFFCAE70020FFF7EB
:101DC0003BFF04460020FFF74BFF43B20C2261B2F9
:101DD0000020FFF71FFFBCE70020FFF72DFF05469F
:101DE0000020FFF733FF441EE4B20020FFF738FF66
:101DF00043B262B269B20020FFF70CFFA9E70020EE
:101E0000FFF71AFF04460020FFF720FF05460020D9
:101E1000FFF726FF431C5BB26AB261B20020FFF7F6
:101E2000F9FE96E70020FFF707FF04460020FFF7C2
:101E30000DFF0C2342B261B20020FFF7EBFE88E7F2
:101E40000020FFF7F9FE04460020FFF7FFFE0546DD
:101E50000020FFF705FF431E5BB26AB261B20020AB
:101E6000FFF7D8FE75E7FFFF08B5FFF73BFD2A2314
:101E7000292228210020FFF7A7FE4FF4E13103209B
:101E8000FFF7DAFC0023074A19460320FFF784FC1A
:101E900001210320FFF738FC4FF4FA700021FFF70F
:101EA0005BFDFEE7031D001A53B94AB9002908BFBC
:101EB00000281CBF4FF0FF314FF0FF3000F06EB92B
:101EC000ADF1080C6DE904CE00F006F8DDF804E091
:101ED000DDE9022304B070472DE9F047089D044670
:101EE0008C46002B40F083808A42174647D9B2FACD
:101EF00082F242B1C2F1200024FA00F091409740F2
:101F000040EA010C94404FEA1748230CBCFBF8F65A
:101F10001FFA87FE08FB16C143EA014306FB0EF1D8
:101F2000994209D9FB1806F1FF3080F019819942D6
:101F300040F21681023E3B445B1AA4B2B3FBF8F0B8
:101F400008FB103344EA034400FB0EFEA64509D902
:101F50003C1900F1FF3380F00581A64540F2028173
:101F600002383C4440EA0640A4EB0E0400261DB1B2
:101F7000D4400023C5E900433146BDE8F08702B9EB
:101F8000FFDEB2FA82F2002A50D1CB1B4FEA174E85
:101F90001FFA87F80126B3FBFEFC210C0EFB1C3355
:101FA00041EA034108FB0CF38B4207D979180CF185
:101FB000FF3002D28B4200F2E9808446C91AA3B2F4
:101FC000B1FBFEF00EFB101143EA014408FB00F8E0
:101FD000A04507D93C1900F1FF3302D2A04500F219
:101FE000D9801846A4EB080440EA0C40BFE78B42B6
:101FF00009D9002D00F0B1800026C5E90001304666
:102000003146BDE8F087B3FA83F6002E4AD18B4201
:1020100002D3824200F2B880841A61EB03010120EE
:102020008C46002DA8D0C5E9004CA5E7C2F12003DD
:1020300020FA03F6974001FA02F04FEA174ED94012
:102040003043030CB1FBFEF61FFA87F80EFB1611A6
:1020500043EA014306FB08F1994204FA02F409D964
:10206000FB1806F1FF3C80F08D80994240F28A8097
:10207000023E3B445B1A81B2B3FBFEF00EFB103311
:1020800041EA034100FB08F38B4207D9791800F1BC
:10209000FF3C73D28B4271D902383944CB1A40EAE3
:1020A000064678E7C6F1200C03FA06F422FA0CF390
:1020B0001C4320FA0CF701FA06F34FEA144E21FAFA
:1020C0000CF11F433B0CB1FBFEF91FFA84F80EFB29
:1020D000191143EA014109FB08FA8A4502FA06F29E
:1020E00000FA06F308D9611809F1FF3048D28A4591
:1020F00046D9A9F102092144A1EB0A01BFB2B1FB03
:10210000FEF00EFB101147EA014700FB08F8B84546
:1021100007D9E71900F1FF312ED2B8452CD9023882
:10212000274440EA0940A7EB0807A0FB02894F4576
:10213000C64649461AD317D05DB1B3EB0E0267EB22
:10214000010707FA0CFCF2404CEA0202F740C5E92D
:10215000002700263146BDE8F0872E4628460BE7CB
:102160000646E9E61846FDE64345E5D2B8EB020E21
:1021700069EB04010138DFE70846D2E760468DE7E6
:102180008146B9E7664675E730464AE7ACF1020C8E
:10219000394413E702383C4424E700BF704700BFCE
:1021A00070B50D4D0D4C641BA4100026A64209D13C
:1021B0000B4D0C4CFEF7A1FF641BA4100026A64299
:1021C00005D170BD55F8043B98470136EEE755F848
:1021D000043B98470136F2E7D024001AD024001AB5
:1021E000D024001AD024001A02440346934200D19E
:1021F000704703F8011BF9E7010F010102004400D9
:102200000201440002024400020A4000020B4000A6
:10221000020C40000100500001015000010250007A
:10222000010650000601500006045000060550004B
:10223000060754000608540006095000060A50001C
:10224000060B5000060C50000F04F0000103D500EF
:102250000104D500070116000702560002035200D0
:1022600002045200090552000906570006025700F1
:102270000000000000040008000901090500050134
:102280000502000E010B010C030003030304050FFC
:1022900005100305030603070208FFFF001BB70034
:1022A000030F0F0FFF00FFFF000005000A002000D2
:1022B000240009004000400005006000A600040062
:1022C000C000C3000200E000E000010000010001C6
:1022D0000300200120010600400140010C004201E2
:1022E00042011900620162011300820182011200A1
:1022F000A201A2011100C201C2011000E201E2012B
:102300000F00020202020E00220222020D0023022E
:1023100023021C00C201A20182016201810082002D
:10232000A100A20000010100090901000A09010041
:102330000107010102090100060901000C09010160
:102340000D0901000E0901000F090100100901002B
:102350001109010012090100130901001411010003
:10236000191101001A1101001B11010004010002E2
:1023700001070500030D0105000108040200020227
:1023800004030002030400000200070400030C031E
:1023900002040509030104050802030405030204FD
:1023A000040504060C000208060B000307060900DA
:1023B0000305060704050F060400030304040002D6
:1023C0000404050002050406000206040804050CC6
:1023D000040A04050E010300000A011400000F01A5
:1023E0001200000D011100000C011000000307078E
:1023F00000030F00010000010000000000060A00B9
:102400000306060804051006050003040601000380
:1024100000040904050D010400000B010F00000277
:102420000100000004010100000801020000090190
:102430000600010902000405000201040501020270
:10244000040502020A00000E020B00010B020C0040
:10245000010CFFFF00400840200000000C000000BD
:1024600000500840210000000D00000000300C402A
:10247000220000000E00000000400C40230000007D
:102480000F000000001008400604020605021800B4
:102490000010084009050709060718000020084039
:1024A000000000000000190000100C4007010607A2
:1024B00002061A0000100C40010F010110011A0061
:1024C00000200C400203020204021B00000102FF74
:0824D00008FAFF7F0100000083
:1024D80000100A4022000000410D001A0000000010
:1024E80000000000000000000000000000000E4096
:1024F80001000000410D001A00000000000000006B
:10250800000000000000000000CB280C6513001A32
:102518006313001A6313001A6313001A6513001A71
:102528006313001A6313001A6313001A6513001A61
:102538006313001A6313001A6313001A6513001A51
:102548006313001A6313001A6313001AFFFFFFFFD7
:102558000100000000000000000000000000000072
:1025680000000000000000001F010003040000003C
:102578000100000000000000000000000000000052
:102588001E0101051000000002000000000000000C
:1025980000000000000000001D010203060000000A
:040000051A0010715C
:00000001FF
