:020000041A00E0
:10000000008000102110001A7B01001A7D01001AE7
:100010007F01001A8101001A8301001A6468FF53EE
:100020000000000000000000000000008501001A30
:100030008701001A000000008901001A3D14001A0F
:100040007901001A7901001A7901001A00000000F4
:100050007901001A7901001A7901001A7901001A50
:100060004115001A7901001A7901001A7901001A64
:100070007901001A7901001A7901001A7901001A30
:100080007901001A7901001A7901001A7901001A20
:100090007901001A7901001A7901001A7901001A10
:1000A0007901001A7901001A7901001A7901001A00
:1000B0007901001A7901001A7901001A7901001AF0
:1000C0007901001A7901001A7901001A7901001AE0
:1000D0007901001A7901001A7901001A7901001AD0
:1000E0007901001A7901001A7901001A7901001AC0
:1000F000000000007901001A7901001A7901001A44
:10010000000000007901001A7901001A7901001A33
:100110007901001A301E001A00000010480000008B
:10012000301E001A0000081000000000301E001AE7
:100130000000002000000000301E001A0080002097
:1001400000000000301E001A00C000200000000067
:1001500048000010480000000000081000000000E7
:1001600000000020000000000080002000000000CF
:1001700000C0002000000000FEE7FEE7FEE7FEE70B
:10018000FEE7FEE7FEE7FEE7FEE7FEE70023934219
:100190000AD210B450F8044B41F8044B0433934294
:1001A000F8D35DF8044B7047704700238B4204D2AC
:1001B000002240F8042B0433F8E77047FFFFFFFFED
:1001C000FFFFFFFFFFFFFFFFFFFFFFFFFFFFFFFF3F
:1001D000FFFFFFFFFFFFFFFFFFFFFFFFFFFFFFFF2F
:1001E000FFFFFFFFFFFFFFFFFFFFFFFFFFFFFFFF1F
:1001F000FFFFFFFFFFFFFFFFFFFFFFFFFFFFFFFF0F
:10020000FFFFFFFFFFFFFFFFFFFFFFFFFFFFFFFFFE
:10021000FFFFFFFFFFFFFFFFFFFFFFFFFFFFFFFFEE
:10022000FFFFFFFFFFFFFFFFFFFFFFFFFFFFFFFFDE
:10023000FFFFFFFFFFFFFFFFFFFFFFFFFFFFFFFFCE
:10024000FFFFFFFFFFFFFFFFFFFFFFFFFFFFFFFFBE
:10025000FFFFFFFFFFFFFFFFFFFFFFFFFFFFFFFFAE
:10026000FFFFFFFFFFFFFFFFFFFFFFFFFFFFFFFF9E
:10027000FFFFFFFFFFFFFFFFFFFFFFFFFFFFFFFF8E
:10028000FFFFFFFFFFFFFFFFFFFFFFFFFFFFFFFF7E
:10029000FFFFFFFFFFFFFFFFFFFFFFFFFFFFFFFF6E
:1002A000FFFFFFFFFFFFFFFFFFFFFFFFFFFFFFFF5E
:1002B000FFFFFFFFFFFFFFFFFFFFFFFFFFFFFFFF4E
:1002C000FFFFFFFFFFFFFFFFFFFFFFFFFFFFFFFF3E
:1002D000FFFFFFFFFFFFFFFFFFFFFFFFFFFFFFFF2E
:1002E000FFFFFFFFFFFFFFFFFFFFFFFFFFFFFFFF1E
:1002F000FFFFFFFFFFFFFFFFFFFFFFFFFFFFFFFF0E
:1003000000231C2B12D810B4094A02EB830112F807
:1003100023404A78488802EB4412064941F82200FB
:1003200001331C2BF0D95DF8044B7047704700BFB8
:100330003C1B001A0060084010B5174AD2F8203163
:1003400023F4704343F41043C2F82031D2F824312F
:1003500023F4704343F41043C2F8243101220F49BF
:10036000062000F093FD00244CB10B4B5A6822F09C
:100370000C025A605A6842F003025A6010BD0848E5
:1003800000EB840101238A78497810F8240000F0FA
:100390000BFB0134E8E700BF0030044000CB280C21
:1003A000381B001A08B5FFF7ABFFFFF7C5FF08BD04
:1003B0000022052A19D870B40C4911F8125001EB2B
:1003C00042014C780A4B05F5006653F826100120CF
:1003D000A040014343F8261003EB451300211955B3
:1003E0000132052AE8D970BC70477047BC1B001A5F
:1003F00000400F400023032B16D830B40B4911F8EE
:10040000132001EB43014D78094C02F5006254F8CA
:1004100022100120A84021EA000144F822100133F3
:10042000032BEBD930BC7047704700BFB41B001AD8
:1004300000400F400023082B16D830B40B4911F8A8
:10044000132001EB43014D78094C02F5006254F88A
:1004500022100120A84021EA000144F822100133B3
:10046000082BEBD930BC7047704700BFC81B001A7F
:1004700000400F4010B582B0084C6946204600F09D
:10048000C5FC074A6946204600F0E0FC00226946A8
:10049000204600F0F4FC02B010BD00BF00300E405A
:1004A000801A060010B50B4C204600F05FFB636815
:1004B00023F004036360236823F0FF0343F0070382
:1004C00023600549204600F032FB636843F00203D5
:1004D000636010BD00500C40A086010008B50020EC
:1004E00000F03EFC044B40F60802C3F8842C03499C
:1004F000002000F049FC08BD0060084040420F00A9
:1005000010B5074C204600F063FB4FF4E131204664
:1005100000F0A8FB0323E3600123E36510BD00BFE7
:1005200000100C4008B5FFF7EBFF094800F012F887
:10053000FFF780FFFFF79EFFFFF7B4FFFFF7CEFF47
:10054000FFF736FFFFF756FF00F006F808BD00BFC3
:1005500000400F407047FFFF08B5692000F0A2FA85
:10056000014B186008BD00BF68000010F0B40B68B4
:1005700013F0800F02D023F040030B6007460125E3
:100580003AE04B6903FB02F3B3FBF5F31CE01C46B6
:10059000B0EB040C27D4674506D98D60771CCF607B
:1005A0000A618C61CB6167460132B2F5807F1DDC48
:1005B0000C6814F0400FE4D0731C02FA03FC4B6982
:1005C00003FB0CF3B3FBF5F3DFF838C06345EBD95D
:1005D000DFF834C0634509D814F0800FD7D1741CFC
:1005E00023FA04F4D4E7CCF1000CD4E70136032E4F
:1005F00001DC0122D9E70135042D01DC0026F6E7F4
:10060000F0BC7047FF5E4C0900D01213F0B599B0F2
:1006100005460C465C22002101A801F085FA8023E2
:1006200000936369059323798DF804306946284661
:10063000FFF79CFF069BAB4227D0EB1A2ED41E4639
:10064000109B23F0400310936369159323798DF871
:10065000443010A92846FFF789FF169BAB421FD0F4
:10066000EB1A25D41F462B4B9D4223D90E982D1AE9
:1006700033D4AE423BDCBE4231DC6D460FCD0FC4FD
:1006800095E80F0084E80F0006E06D460FCD0FC41B
:1006900095E80F0084E80F0019B0F0BD5B42CEE78B
:1006A00010AD0FCD0FC495E80F0084E80F00F3E7FD
:1006B0005B42D7E74023089363690D9308A9284656
:1006C000FFF754FF0E9BAB42D0D108AD0FCD0FC446
:1006D00095E80F0084E80F00DEE76D42C9E710AD32
:1006E0000FCD0FC495E80F0084E80F00D4E7AF42A8
:1006F00007DB08AD0FCD0FC495E80F0084E80F00AD
:10070000CAE710AD0FCD0FC495E80F0084E80F00C5
:10071000C2E700BF80778E0630B4054600231C2058
:1007200000E001331C2817D103EB43020B4901EB16
:100730004202117981420FD003EB4302074C34F897
:100740001220AA42EDD803EB430204EB4202528886
:10075000AA42E6D30846E5E730BC7047E81B001A1A
:1007600082B04FF47A7301930D4A936923F002012A
:1007700092698A4201D00A4A916123F00303094A2F
:100780001168094A914201D943F00403044A936174
:10079000019B5A1E0192002BFAD102B0704700BF94
:1007A00000000540DC1B001AFF2C31011230054B04
:1007B00053F8200010F0010F02D1C0F3046070471D
:1007C000112070470000054000F11202034B53F85E
:1007D0002220034B185C00EA92007047000005409D
:1007E000E01B001A08B510280AD8DFE800F0440B17
:1007F0000D18210924272A2D09093034383C4000DE
:10080000002008BD1E48FCE71E4BD3F82C3103F036
:100810000703042B01D01C48F3E70020F1E7194B34
:10082000D3F82C3103F00703042B27D01648E8E750
:10083000164B1868E5E7164B1868E2E7154B186881
:10084000DFE7144B5868DCE700F068F8D9E70021CF
:1008500000F098F8D5E7012100F094F8D1E70221E3
:1008600000F090F8CDE7032100F08CF8C9E70421EF
:1008700000F088F8C5E74FF40040C2E70648C0E73B
:10088000001BB7000030044040787D01B01B001A07
:10089000DC1B001A4800001080F0FA0238B505464B
:1008A0000C460879FFF79EFF6061194B2B44194AEB
:1008B000934221D818B3802323600023A360E36010
:1008C000B5FBF0F32361144A954203D903FB00F012
:1008D000A84207D021462846FFF798FEA3688BB1AF
:1008E000013BA360236983B1E2680AB1013AE26087
:1008F000013B2361002038BD4FF0FF30FBE74FF094
:10090000FF30F8E74FF0FF30F5E74FF0FF30F2E748
:10091000103A6BFF1005940BFF5E4C0970B582B066
:10092000164D6C6CC4F30360FFF75CFF0646144A77
:100930000192286C10F001001DD0C4F30742C4F3EB
:100940000131C4F30125C4F380100132013102AB3F
:100950001D4415F8043C14F0800F08D138B9580034
:10096000B2FBF0F2B6FBF1F000FB02F003E0B6FBE5
:10097000F1F002FB00F002B070BD00BF00000540C6
:100980000102040838B50C460846FFF70FFF05467C
:100990002046FFF719FF04462846FFF723FF0134DE
:1009A000B0FBF4F038BDFFFF30B400F11604A40032
:1009B00004F1804404F5A02464681B2813D811298D
:1009C0001AD00E4D25400AB145F400650BB145F033
:1009D000010545EA01611630800000F1804000F514
:1009E000A020416008E044F001041630800000F1CE
:1009F000804000F5A020446030BC7047FEF7FFE067
:100A00001B280DD800F116039B0003F1804303F56A
:100A1000A023586810F0010F04D1C0F304607047A0
:100A2000112070471120704708B5FFF7E9FFFFF765
:100A3000D9FE08BD71B901210AB141F00401022BB0
:100A40000AD0B0F5A17F0AD3A0F59170064B43F808
:100A5000301070470321EFE741F02001F1E720302B
:100A6000024B43F83010704700200540001005404D
:100A7000B0F5A17F09D3094AA0F5917052F8303042
:100A800043F0010342F830307047054A203052F8F5
:100A9000303043F0010342F8303070470020054009
:100AA0000010054010B50346B0F5A17F08D3A0F5AE
:100AB00091720D4951F8324014F0010006D110BD79
:100AC00000F12002094951F83240F5E71846FFF7D6
:100AD00023FEFFF7A9FF14F0E00F03D10123B0FBC1
:100AE000F3F0ECE70223FAE7002005400010054090
:100AF000034B984201D083207047A520704700BF68
:100B000000500C40044B984202D040F20220704743
:100B10004FF4F170704700BF00500C40036823F49D
:100B20007F43090289B2194301600261704770B5C1
:100B300006460C46FFF7E6FFFFF7B4FF02224FF030
:100B4000FF33002100E02946A3420BD94D1C01FBD5
:100B50000223B0FBF3F39C42F6D2FF2DF3D902320D
:100B60000021F1E73046FFF7D9FF70BD10B504460C
:100B7000FFF7BEFFFFF77CFF2046FFF7C3FFFFF73D
:100B800077FF636823F004036360236823F0FF03A7
:100B900043F00703236002492046FFF7C8FF10BD5A
:100BA000A0860100094B98420BD003F58053984270
:100BB00009D0A3F58023984201D00020704701207E
:100BC0007047022070470320704700BF00100C40A0
:100BD00030B583B00446FFF7E5FF01231A461946F6
:100BE0000E4D35F81000FFF725FF0723A360002303
:100BF000E3656360E3602362E36463652365084B38
:100C00009C4206D00323E3601023A362019B03B040
:100C100030BD00232361A3690193F3E75C1C001A34
:100C20000020084038B505460C46FFF7BBFF0C4BCB
:100C300033F81000FFF736FF2101B0FBF1F1CAB223
:100C4000EB6843F08003EB602A60C1F307236B601D
:100C5000EB6823F08003EB60B0FBF1F0000938BDD6
:100C6000541C001A2DE9F04F83B001908846FFF71D
:100C700099FF324B33F81000FFF714FF06464FF090
:100C8000FF3701244FF0000BA246D9462AE042422A
:100C90004B1C17E00AB31746AB46A24699460135EE
:100CA000AC421ED933093007A4FB000104FB031139
:100CB000621908FB02F2002300F096FD02460B4683
:100CC0000028E4DB9742EAD3002BE8D0190CE6D1E8
:100CD000022BDFD8002DDDD0E1E71746AB46A24658
:100CE000994601341FB10F2C01D80025D8E7B9F17E
:100CF000000F1ED0019A1146D36843F08003D360E1
:100D00005FFA89F31360C9F307235360D36823F0B4
:100D10008003D3604FEA0A13DBB20BF00F021343D8
:100D20008B6233090AFB03F3DA4409FB0AF9B3FBCC
:100D3000F9F9484603B0BDE8F08F00BF541C001A13
:100D4000012909D1C0EBC000044B03EB800002690C
:100D5000137DDBB2042BFBD0704700BF00000010F6
:100D600070B50446074EC500C0EBC00306EB830315
:100D70009888FFF77DFE2C1B56F824306C229A6170
:100D800070BD00BF000000102DE9F0410446884608
:100D90000B4DC600C0EBC0039F0005EB8303988892
:100DA000FFF780FEB0FBF8F1EB594A081A61341BDB
:100DB00055F824301869091A5961BDE8F08100BF5F
:100DC00000000010034B984201D00320704704201C
:100DD000704700BF00400E4070B50D4614461E46D9
:100DE000FFF7F0FFFFF75EFE55B104FB06F404EBDE
:100DF00040006400B0FBF4F0C0B20138C0B270BD76
:100E000004EB840304EB4304F1E7FFFF38B5054628
:100E10000C46FFF7D7FF01231A461946FFF70AFED3
:100E20000021E960084A2260217161710B23284684
:100E3000FFF7D2FF000240F4001023795B0403F4B3
:100E4000602303432B6038BD801A060070B5054649
:100E50000E46046824F46F2424F470640A600B794D
:100E6000C3F10B03DBB24979FFF7B6FF44EA002474
:100E700033795B0403F4602323432B6070BD08B512
:100E80000A710A68FFF7E2FF08BDFFFF70B58AB07C
:100E900005460E4614464CF250330993062818D0E6
:100EA0000023012229460420FFF77EFD4A4A536CA5
:100EB00043F0010353648DF8085001A93046FFF751
:100EC000EDFC464B9E4216D9019B13F0400F03D018
:100ED000FEE7FFF745FCE3E713F0800F05D023F0B2
:100EE000800301930025012607E0049B013304934E
:100EF0000125002601E000252E469DF80820019BD3
:100F000043EA0263059A43EA0243039A43EA02333F
:100F1000049A43EA022343F400632F4A53642E4B9E
:100F20001B6C13F0010FFAD00023012209210420C9
:100F3000FFF73AFD06B34CF250330993099B5A1E52
:100F40000992002BFAD1019B43F0800301939DF895
:100F5000082043EA0263059A43EA0243039A43EAFC
:100F60000233049A43EA022343F400631A4A5364A7
:100F7000002C2ED10AB070BD002DF9D04CF25033A8
:100F80000993099B5A1E0992002BFAD1049B5A1E01
:100F900004929DF80810019B43EA0163059943EA16
:100FA0000143039943EA013343EA022343F4006314
:100FB000094A5364DCE70A4800EB8401CB788A785D
:100FC000497810F82400FFF7EFFC0134112CF2D916
:100FD000D0E70024FAE700BF0000054080778E06C6
:100FE000641C001A08B50B4A0B4B9A6003F50C738E
:100FF0001B6903F47F63202B04D0FFF7D3F9FFF7BD
:1010000091FA08BD044AD2F8883043F47003C2F85C
:101010008830F2E70000001A00ED00E07047FFFFA3
:1010200010B572B6194B1A4A1A600433194A1A607D
:10103000002305E0184A4FF0FF3142F82310013336
:10104000072BF7D962B6154B07E003F10C049A6839
:1010500059681868FFF79AF82346114A9342F4D367
:1010600006E01C46596854F8080BFFF79EF8234623
:101070000C4A9342F5D3FFF7B5FF00F031FDFFF7BF
:10108000CDFF00F0C7FA30BFFDE700BF00310540DB
:101090000010DF10FFF7DF0180E200E01401001A0A
:1010A0005001001A7801001A70477047044B18600D
:1010B000044A136843F0010313600120704700BF26
:1010C00038000010001000E030B40B4D00EB800041
:1010D0002C182856087094F90110117094F9022008
:1010E0001A7094F90320029B1A7094F90420039B50
:1010F0001A7030BC704700BFAC1C001A10F1020F10
:1011000000F0C68070B584B00C46B0F1FF3F00F02F
:10111000C18000238DF80F308DF80E308DF80D3022
:101120008DF80C308DF80B300DF10B03019303ABF0
:1011300000930DF10D030DF10E020DF10F01FFF7FC
:10114000C3FF052C00F2A980DFE804F008802644E4
:1011500062035348FFF7FEF901209CE09DF80F1051
:101160009DF80E309DF80D2042F0D00203EB4113A4
:101170004C4941F823209DF80C309DF90B200120AB
:1011800000FA02F1464C03F5006354F8232022EAEA
:10119000010244F823207EE09DF80F109DF80E30E8
:1011A0009DF80D2042F0C00203EB41133D4941F888
:1011B00023209DF80C309DF90B20012000FA02F14C
:1011C000374C03F5006354F8232022EA010244F867
:1011D000232060E09DF80F109DF80E309DF80D2043
:1011E00042F0D80203EB41132E4941F823209DF829
:1011F0000C309DF90B20012000FA02F1284C03F578
:10120000006354F8232022EA010244F8232042E03C
:101210009DF80F109DF80E309DF80D2042F0C80289
:1012200003EB41131F4941F823209DF80C309DF931
:101230000B20012000FA02F1194C03F5006354F869
:10124000232022EA010244F8232024E09DF80F1015
:101250009DF80E309DF80D2042F0D00203EB4113B3
:10126000104941F823209DF80C009DF90B10012234
:101270008A400B4B00F5006553F82560324343F874
:101280002520C9B203EB401300225A54204602E045
:1012900000207047002004B070BD0020FBE700BFB5
:1012A00000400F400060084010F1020F2DD010B533
:1012B00084B00C46B0F1FF3F29D000238DF80F30E9
:1012C0008DF80E308DF80D308DF80C308DF80B3018
:1012D0000DF10B03019303AB00930DF10D030DF121
:1012E0000E020DF10F01FFF7EFFE9DF80C309DF897
:1012F0000B20211E18BF01215B0103F1402303F5E0
:1013000070239954012004B010BD002070470020C4
:10131000F9E710F1020F2CD0B0F1FF3F2BD000B550
:1013200085B000238DF80F308DF80E308DF80D301C
:101330008DF80C308DF80B300DF10B03019303ABDE
:1013400000930DF10D030DF10E020DF10F01FFF7EA
:10135000BBFE9DF90C309DF80B205B0103F140238F
:1013600003F57023985C003818BF012005B05DF8C4
:1013700004FB0120704700207047FFFF014BD3E9B9
:10138000000170475800001030B1054A106001207C
:1013900021B1044B196070470020F9E70020704725
:1013A000600000105000001018B1044B07221A60B2
:1013B0007047024B00221A60704700BF10E000E047
:1013C00038B502460B4652EA030128D010F1FF342B
:1013D00043F1FF35002D08BF322C25D21349C1E956
:1013E000002313490C68A4FB000104FB03114FF414
:1013F0007A72002300F0F8F90138B0F1807F09D249
:101400000C4B58600C4AE02182F8231000229A60AD
:1014100007221A600120FFF7C7FF012005E0002026
:10142000FFF7C2FF002000E0002038BD40000010A0
:101430006800001010E000E000ED00E008B5074A89
:1014400013685168013341F1000113605160044B8E
:101450001B6813B1034A1068984708BD5800001074
:10146000600000105000001000EB4000034B53F8E8
:101470002030586900F02000704700BF941D001A0A
:1014800000EB4000024B53F820301960704700BF5A
:10149000941D001A2DE9F84304468946194D00EBC6
:1014A000400305EB830655F823703846FFF790FBA1
:1014B00049463846FFF7B6FB0723BB603B6801236C
:1014C000FB6530797379B27942F018020E4903EB6B
:1014D000401341F82320F079337A727A42F0D00237
:1014E00003EB401341F82320012C01D0BDE8F88321
:1014F000064AD36C43F03003D3641A22C1F80823A0
:10150000F4E700BF941D001A006008400010084076
:1015100038B504460D462046FFF7A6FF0028FAD04E
:1015200029462046FFF7ACFF38BD38B505460C46C6
:10153000217821B12846FFF7EBFF0134F8E738BDE9
:1015400008B5044B1B681B68DB68034A10689847A2
:1015500008BD00BF6C0000106400001008B5FEF765
:10156000FBFF1A4B1868FFF7A1FD01200021FFF7D0
:1015700027FF05210020FFF7C1FD00212420FFF7F0
:10158000BDFD00212520FFF7B9FD00212620FFF732
:10159000B5FD00212720FFF7B1FD01212820FFF72D
:1015A000ADFD01212920FFF7A9FD01212A20FFF728
:1015B000A5FD01212B20FFF7A1FD01212C20FFF724
:1015C0009DFD01212D20FFF799FD08BD6800001049
:1015D0002DE9F84381468846FFF7D0FE06460F46C0
:1015E000FFF7CCFE841B61EB0705064BD3E9002314
:1015F0004846414600F0F8F88D4208BF8442EFD3D8
:10160000BDE8F88340000010012343700170426080
:101610007047FFFF08B5FFF7A1FF32200021FFF759
:10162000CFFE4FF4E1310320FFF734FF0E4A2421AF
:101630000E48FFF7E9FF0E4A25210E48FFF7E4FFA9
:101640000D4A26210D48FFF7DFFF0D4A27210D48DF
:10165000FFF7DAFF00210C48FFF796FE4FF4FA700F
:101660000021FFF7B5FFFEE7DC1D001A880000101F
:10167000E41D001A80000010EC1D001A700000101C
:10168000F41D001A78000010BD17001A10B50446AA
:1016900014490320FFF749FF61680320FFF745FF66
:1016A00011490320FFF741FF94F90030243B032B3D
:1016B00007D8DFE803F002070C1101212820FFF70B
:1016C000F3FD10BD01212B20FFF7EEFDF9E701210D
:1016D0002C20FFF7E9FDF4E701212D20FFF7E4FDC1
:1016E000EFE700BFFC1D001A101E001A10B50446DB
:1016F00014490320FFF719FF61680320FFF715FF66
:1017000011490320FFF711FF94F90030243B032B0C
:1017100007D8DFE803F002070C1100212820FFF7AB
:10172000C3FD10BD00212B20FFF7BEFDF9E700210E
:101730002C20FFF7B9FDF4E700212D20FFF7B4FDC1
:10174000EFE700BF141E001A101E001A10B5044661
:101750004378032B2AD8DFE803F00A02211390F91B
:101760000000FFF7D6FD08BB032363701EE090F96D
:101770000000FFF7CEFD012818D10223637015E0A9
:1017800090F90000FFF7C5FD10B1012363700DE073
:10179000002363702046FFF779FF07E090F900000F
:1017A000FFF7B7FD012802D00023637010BD0123AD
:1017B00063702046FFF79AFFF8E7FFFF08B5064879
:1017C000FFF7C4FF0548FFF7C1FF0548FFF7BEFF5D
:1017D0000448FFF7BBFF08BD880000108000001020
:1017E000700000107800001053B94AB9002908BFF2
:1017F00000281CBF4FF0FF314FF0FF3000F06EB9F2
:10180000ADF1080C6DE904CE00F006F8DDF804E057
:10181000DDE9022304B070472DE9F047089D044636
:101820008C46002B40F083808A42174647D9B2FA93
:1018300082F242B1C2F1200024FA00F091409740B8
:1018400040EA010C94404FEA1748230CBCFBF8F621
:101850001FFA87FE08FB16C143EA014306FB0EF19F
:10186000994209D9FB1806F1FF3080F0198199429D
:1018700040F21681023E3B445B1AA4B2B3FBF8F07F
:1018800008FB103344EA034400FB0EFEA64509D9C9
:101890003C1900F1FF3380F00581A64540F202813A
:1018A00002383C4440EA0640A4EB0E0400261DB179
:1018B000D4400023C5E900433146BDE8F08702B9B2
:1018C000FFDEB2FA82F2002A50D1CB1B4FEA174E4C
:1018D0001FFA87F80126B3FBFEFC210C0EFB1C331C
:1018E00041EA034108FB0CF38B4207D979180CF14C
:1018F000FF3002D28B4200F2E9808446C91AA3B2BB
:10190000B1FBFEF00EFB101143EA014408FB00F8A6
:10191000A04507D93C1900F1FF3302D2A04500F2DF
:10192000D9801846A4EB080440EA0C40BFE78B427C
:1019300009D9002D00F0B1800026C5E9000130462C
:101940003146BDE8F087B3FA83F6002E4AD18B42C8
:1019500002D3824200F2B880841A61EB03010120B5
:101960008C46002DA8D0C5E9004CA5E7C2F12003A4
:1019700020FA03F6974001FA02F04FEA174ED940D9
:101980003043030CB1FBFEF61FFA87F80EFB16116D
:1019900043EA014306FB08F1994204FA02F409D92B
:1019A000FB1806F1FF3C80F08D80994240F28A805E
:1019B000023E3B445B1A81B2B3FBFEF00EFB1033D8
:1019C00041EA034100FB08F38B4207D9791800F183
:1019D000FF3C73D28B4271D902383944CB1A40EAAA
:1019E000064678E7C6F1200C03FA06F422FA0CF357
:1019F0001C4320FA0CF701FA06F34FEA144E21FAC1
:101A00000CF11F433B0CB1FBFEF91FFA84F80EFBEF
:101A1000191143EA014109FB08FA8A4502FA06F264
:101A200000FA06F308D9611809F1FF3048D28A4557
:101A300046D9A9F102092144A1EB0A01BFB2B1FBC9
:101A4000FEF00EFB101147EA014700FB08F8B8450D
:101A500007D9E71900F1FF312ED2B8452CD9023849
:101A6000274440EA0940A7EB0807A0FB02894F453D
:101A7000C64649461AD317D05DB1B3EB0E0267EBE9
:101A8000010707FA0CFCF2404CEA0202F740C5E9F4
:101A9000002700263146BDE8F0872E4628460BE792
:101AA0000646E9E61846FDE64345E5D2B8EB020EE8
:101AB00069EB04010138DFE70846D2E760468DE7AD
:101AC0008146B9E7664675E730464AE7ACF1020C55
:101AD000394413E702383C4424E700BF704700BF95
:101AE00070B50D4D0D4C641BA4100026A64209D103
:101AF0000B4D0C4CFFF7D9FA641BA4100026A6422C
:101B000005D170BD55F8043B98470136EEE755F80E
:101B1000043B98470136F2E7281E001A281E001AD7
:101B2000281E001A281E001A02440346934200D1C0
:101B3000704703F8011BF9E7010F0101020044009F
:101B40000201440002024400020A4000020B40006D
:101B5000020C400001005000010150000102500041
:101B60000106500006015000060450000605500012
:101B7000060754000608540006095000060A5000E3
:101B8000060B5000060C50000F04F0000103D500B6
:101B90000104D50007011600070256000203520097
:101BA00002045200090552000906570006025700B8
:101BB00000000000000400080009010905000501FB
:101BC0000502000E010B010C030003030304050FC3
:101BD00005100305030603070208FFFF001BB700FB
:101BE000030F0F0FFF00FFFF000005000A00200099
:101BF000240009004000400005006000A600040029
:101C0000C000C3000200E000E0000100000100018C
:101C10000300200120010600400140010C004201A8
:101C20004201190062016201130082018201120067
:101C3000A201A2011100C201C2011000E201E201F1
:101C40000F00020202020E00220222020D002302F5
:101C500023021C00C201A2018201620181008200F4
:101C6000A100A20000010100090901000A09010008
:101C70000107010102090100060901000C09010127
:101C80000D0901000E0901000F09010010090100F2
:101C900011090100120901001309010014110100CA
:101CA000191101001A1101001B11010004010002A9
:101CB00001070500030D01050001080402000202EE
:101CC00004030002030400000200070400030C03E5
:101CD00002040509030104050802030405030204C4
:101CE000040504060C000208060B000307060900A1
:101CF0000305060704050F0604000303040400029D
:101D00000404050002050406000206040804050C8C
:101D1000040A04050E010300000A011400000F016B
:101D20001200000D011100000C0110000003070754
:101D300000030F00010000010000000000060A007F
:101D40000306060804051006050003040601000347
:101D500000040904050D010400000B010F0000023E
:101D60000100000004010100000801020000090157
:101D70000600010902000405000201040501020237
:101D8000040502020A00000E020B00010B020C0007
:101D9000010CFFFF001008400604020605021800AF
:101DA0000010084009050709060718000020084030
:101DB000000000000000190000100C400701060799
:101DC00002061A0000100C40010F010110011A0058
:101DD00000200C400203020204021B005445432071
:101DE0003100000054454320320000005445432098
:101DF00033000000544543203400FFFF5465636CFA
:101E0000612061707265746164613A2000000000B5
:101E10000D0A00FF5465636C61206C696265726134
:081E200064613A2000FFFFFF9E
:081E2800F0F9FF7F010000004A
:101E300000100A4022000000410D001A00000000BE
:101E400000000000000000000000000000000E4044
:101E500001000000410D001A000000000000000019
:101E6000000000000000000000CB280CFFFFFFFF77
:081E7000010000000000000069
:040000051A001021AC
:00000001FF
